:0400000053EF3CF08E
:1078A1000100000001A10EF66E780EF76E000EF8D1
:1078B1006E00EE0BF010EE05F00900F5CFEEFFE5DE
:1078C10050E150FAE1000EF86E000168EF3CF00063
:1078D1000E956E000E8C6E938E939CF19E81BE214F
:1078E100D0820E0A6EDE0EE82EFED70A2EFCD70FCE
:1078F1002A070E0F18D8A415D0010E0F6E12D0A2B0
:10790100EC3DF0ECD7B2EC3EF0E9D72AEC3EF0E6E4
:10791100D74CEC3FF0E3D7A6EC3CF0E0D723EC3DAD
:10792100F0DDD70F50010AD8B4EAD7030AD8B4EA78
:10793100D7010AD8B4EAD7070AD8B4EAD7010AD8D6
:10794100B4EAD7030AD8B4EAD7C9D7000E046E093E
:107951000E036E04AE120003C001F0020E026E01AE
:107961002A02D0D8900236012EFCD70250FE0F8C8D
:107971006E0B040C100D100E10D8A408D0820E014D
:107981006EDE0EE82EFED7012EFCD73AD0020E0B8A
:10799100180C100D100E10D8A40DD0020E026E049A
:1079A1000E016EBA0EE82EFED7012EFCD7022EFA7A
:1079B100D700D026D0030E0B180C100D100E10D8C6
:1079C100A40CD0030E026E080E016E770EE82EFE97
:1079D100D7012EFCD7022EFAD712D0040E0B180CA9
:1079E100100D100E10D8A40CD0050E026E0F0E0152
:1079F1006EF10EE82EFED7012EFCD7022EFAD7002B
:107A0100F081BC1CD0820E016EDE0EE82EFED70185
:107A11002EFCD7010E0B26000E0C220D220E220584
:107A21000E0B180C100D100E10D8A408D0010E0B5F
:107A31006E000E0C6E000E0D6E000E0E6E0306D85B
:107A4100A0040687D7000E066E070E056E000E0411
:107A51006E000E036E06AE120003500324000801EF
:107A61006E0544E846FC0B01248C6E0B040C100DD2
:107A7100100E10D8A408D0820E016EDE0EE82EFE84
:107A8100D7012EFCD73AD0020E0B180C100D100E98
:107A910010D8A40DD0020E026E040E016EBA0EE8CB
:107AA1002EFED7012EFCD7022EFAD700D026D00306
:107AB1000E0B180C100D100E10D8A40CD0030E02D2
:107AC1006E080E016E770EE82EFED7012EFCD7024E
:107AD1002EFAD712D0040E0B180C100D100E10D860
:107AE100A40CD0050E026E0F0E016EF10EE82EFEF3
:107AF100D7012EFCD7022EFAD700F081BC1CD08210
:107B01000E016EDE0EE82EFED7012EFCD7010E0B04
:107B110026000E0C220D220E22050E0B180C100D44
:107B2100100E10D8A408D0010E0B6E000E0C6E00C2
:107B31000E0D6E000E0E6E0506D8A00606034A0451
:107B41002A89D7000E046E000E036E04BE08D0040D
:107B51005005E1080E035CD8B0120001D0120003F9
:107B6100C001F0010E026E012A02D0D89002360146
:107B71002EFCD702508C6E0B040C100D100E10D879
:107B8100A408D0820E016EDE0EE82EFED7012EFC77
:107B9100D73AD0020E0B180C100D100E10D8A40DF0
:107BA100D0020E026E040E016EBA0EE82EFED7014F
:107BB1002EFCD7022EFAD700D026D0030E0B180CBC
:107BC100100D100E10D8A40CD0030E026E080E0179
:107BD1006E770EE82EFED7012EFCD7022EFAD712B1
:107BE100D0040E0B180C100D100E10D8A40CD005DB
:107BF1000E026E0F0E016EF10EE82EFED7012EFC65
:107C0100D7022EFAD700F081BC1CD0820E016EDEA5
:107C11000EE82EFED7012EFCD7010E0B26000E0C0E
:107C2100220D220E22050E0B180C100D100E10D86D
:107C3100A408D0010E0B6E000E0C6E000E0D6E002E
:107C41000E0E6E034A042A04BE8AD7045001E18154
:107C5100D71200000E046E000E036E04BE08D0049D
:107C61005005E1090E035CD8B0120001D0120003E7
:107C7100C001F0010E026E012A02D0D89002360135
:107C81002EFCD702048C6E0B040C100D100E10D8B4
:107C9100A408D0820E016EDE0EE82EFED7012EFC66
:107CA100D73AD0020E0B180C100D100E10D8A40DDF
:107CB100D0020E026E040E016EBA0EE82EFED7013E
:107CC1002EFCD7022EFAD700D026D0030E0B180CAB
:107CD100100D100E10D8A40CD0030E026E080E0168
:107CE1006E770EE82EFED7012EFCD7022EFAD712A0
:107CF100D0040E0B180C100D100E10D8A40CD005CA
:107D01000E026E0F0E016EF10EE82EFED7012EFC53
:107D1100D7022EFAD700F081BC1CD0820E016EDE94
:107D21000EE82EFED7012EFCD7010E0B26000E0CFD
:107D3100220D220E22050E0B180C100D100E10D85C
:107D4100A408D0010E0B6E000E0C6E000E0D6E001D
:107D51000E0E6E034A042A04BE8AD7045001E18143
:107D6100D71200000E086E000E076E000E066E0799
:107D71000E056E08BE08D0085005E1080E075CD854
:107D8100B0120001D0120005C001F0010E026E0117
:107D91002A02D0D8900236012EFCD707C003F00189
:107DA1000E046E032A02D0D8900436032EFCD704A9
:107DB1005002248C6E0B040C100D100E10D8A40868
:107DC100D0820E016EDE0EE82EFED7012EFCD73AD0
:107DD100D0020E0B180C100D100E10D8A40DD002ED
:107DE1000E026E040E016EBA0EE82EFED7012EFCB5
:107DF100D7022EFAD700D026D0030E0B180C100D87
:107E0100100E10D8A40CD0030E026E080E016E776E
:107E11000EE82EFED7012EFCD7022EFAD712D0047F
:107E21000E0B180C100D100E10D8A40CD0050E025C
:107E31006E0F0E016EF10EE82EFED7012EFCD70259
:107E41002EFAD700F081BC1CD0820E016EDE0EE846
:107E51002EFED7012EFCD7010E0B26000E0C220D93
:107E6100220E22050E0B180C100D100E10D8A408AE
:107E7100D0010E0B6E000E0C6E000E0D6E000E0E7C
:107E81006E074A082A0506D8A0060608BE7CD70850
:107E91005001E173D71200000E076E000E066E004E
:107EA1000E096E000E086E000E056E000E046E05C2
:107EB100BE08D0055005E1050E045CD8B0120001E2
:107EC100D01200065008248C6E04C001F0010E028D
:107ED1006E000E036E012A03D0D8900236033601DC
:107EE1002EFBD70F0E0216000E03160250062603B4
:107EF10050072204500008016E070E0126010E02F0
:107F01006E000E036E012A03D0D8900236033601AB
:107F11002EFBD7F00E0216000E03160250082603A0
:107F21005009220B040C100D100E10D8A408D08299
:107F31000E016EDE0EE82EFED7012EFCD73AD002DE
:107F41000E0B180C100D100E10D8A40DD0020E023D
:107F51006E040E016EBA0EE82EFED7012EFCD7027A
:107F61002EFAD700D026D0030E0B180C100D100ED0
:107F710010D8A40CD0030E026E080E016E770EE825
:107F81002EFED7012EFCD7022EFAD712D0040E0BEB
:107F9100180C100D100E10D8A40CD0050E026E0F87
:107FA1000E016EF10EE82EFED7012EFCD7022EFA3D
:107FB100D700F081BC1CD0820E016EDE0EE82EFED1
:107FC100D7012EFCD7010E0B26000E0C220D220E1E
:107FD10022050E0B180C100D100E10D8A408D0019C
:107FE1000E0B6E000E0C6E000E0D6E000E0E6E046A
:0F7FF1004A052A05BE66D7055001E15DD712008B
:020000040020DA
:08000000FFFFFFFFFFFFFFFF00
:020000040030CA
:0E00000000091F1EFF8181FF0FC00FE00F409F
:00000001FF
